{
  "_format": "hh-sol-artifact-1",
  "contractName": "NftMinter",
  "sourceName": "contracts/NftMinter.sol",
  "abi": [
    {
      "inputs": [],
      "stateMutability": "nonpayable",
      "type": "constructor"
    },
    {
      "inputs": [
        {
          "internalType": "address",
          "name": "sender",
          "type": "address"
        },
        {
          "internalType": "uint256",
          "name": "tokenId",
          "type": "uint256"
        },
        {
          "internalType": "address",
          "name": "owner",
          "type": "address"
        }
      ],
      "name": "ERC721IncorrectOwner",
      "type": "error"
    },
    {
      "inputs": [
        {
          "internalType": "address",
          "name": "operator",
          "type": "address"
        },
        {
          "internalType": "uint256",
          "name": "tokenId",
          "type": "uint256"
        }
      ],
      "name": "ERC721InsufficientApproval",
      "type": "error"
    },
    {
      "inputs": [
        {
          "internalType": "address",
          "name": "approver",
          "type": "address"
        }
      ],
      "name": "ERC721InvalidApprover",
      "type": "error"
    },
    {
      "inputs": [
        {
          "internalType": "address",
          "name": "operator",
          "type": "address"
        }
      ],
      "name": "ERC721InvalidOperator",
      "type": "error"
    },
    {
      "inputs": [
        {
          "internalType": "address",
          "name": "owner",
          "type": "address"
        }
      ],
      "name": "ERC721InvalidOwner",
      "type": "error"
    },
    {
      "inputs": [
        {
          "internalType": "address",
          "name": "receiver",
          "type": "address"
        }
      ],
      "name": "ERC721InvalidReceiver",
      "type": "error"
    },
    {
      "inputs": [
        {
          "internalType": "address",
          "name": "sender",
          "type": "address"
        }
      ],
      "name": "ERC721InvalidSender",
      "type": "error"
    },
    {
      "inputs": [
        {
          "internalType": "uint256",
          "name": "tokenId",
          "type": "uint256"
        }
      ],
      "name": "ERC721NonexistentToken",
      "type": "error"
    },
    {
      "anonymous": false,
      "inputs": [
        {
          "indexed": true,
          "internalType": "address",
          "name": "owner",
          "type": "address"
        },
        {
          "indexed": true,
          "internalType": "address",
          "name": "approved",
          "type": "address"
        },
        {
          "indexed": true,
          "internalType": "uint256",
          "name": "tokenId",
          "type": "uint256"
        }
      ],
      "name": "Approval",
      "type": "event"
    },
    {
      "anonymous": false,
      "inputs": [
        {
          "indexed": true,
          "internalType": "address",
          "name": "owner",
          "type": "address"
        },
        {
          "indexed": true,
          "internalType": "address",
          "name": "operator",
          "type": "address"
        },
        {
          "indexed": false,
          "internalType": "bool",
          "name": "approved",
          "type": "bool"
        }
      ],
      "name": "ApprovalForAll",
      "type": "event"
    },
    {
      "anonymous": false,
      "inputs": [
        {
          "indexed": true,
          "internalType": "address",
          "name": "from",
          "type": "address"
        },
        {
          "indexed": true,
          "internalType": "address",
          "name": "to",
          "type": "address"
        },
        {
          "indexed": true,
          "internalType": "uint256",
          "name": "tokenId",
          "type": "uint256"
        }
      ],
      "name": "Transfer",
      "type": "event"
    },
    {
      "inputs": [
        {
          "internalType": "uint256",
          "name": "",
          "type": "uint256"
        }
      ],
      "name": "MintedNfts",
      "outputs": [
        {
          "internalType": "address",
          "name": "owner",
          "type": "address"
        },
        {
          "internalType": "uint256",
          "name": "tokenId",
          "type": "uint256"
        },
        {
          "internalType": "string",
          "name": "tokenUri",
          "type": "string"
        }
      ],
      "stateMutability": "view",
      "type": "function"
    },
    {
      "inputs": [
        {
          "internalType": "address",
          "name": "to",
          "type": "address"
        },
        {
          "internalType": "uint256",
          "name": "tokenId",
          "type": "uint256"
        }
      ],
      "name": "approve",
      "outputs": [],
      "stateMutability": "nonpayable",
      "type": "function"
    },
    {
      "inputs": [
        {
          "internalType": "address",
          "name": "owner",
          "type": "address"
        }
      ],
      "name": "balanceOf",
      "outputs": [
        {
          "internalType": "uint256",
          "name": "",
          "type": "uint256"
        }
      ],
      "stateMutability": "view",
      "type": "function"
    },
    {
      "inputs": [
        {
          "internalType": "uint256",
          "name": "tokenId",
          "type": "uint256"
        }
      ],
      "name": "getApproved",
      "outputs": [
        {
          "internalType": "address",
          "name": "",
          "type": "address"
        }
      ],
      "stateMutability": "view",
      "type": "function"
    },
    {
      "inputs": [
        {
          "internalType": "uint256",
          "name": "_id",
          "type": "uint256"
        }
      ],
      "name": "getNft",
      "outputs": [
        {
          "internalType": "address",
          "name": "",
          "type": "address"
        },
        {
          "internalType": "uint256",
          "name": "",
          "type": "uint256"
        },
        {
          "internalType": "string",
          "name": "",
          "type": "string"
        }
      ],
      "stateMutability": "view",
      "type": "function"
    },
    {
      "inputs": [],
      "name": "getTotalNftCount",
      "outputs": [
        {
          "internalType": "uint256",
          "name": "",
          "type": "uint256"
        }
      ],
      "stateMutability": "view",
      "type": "function"
    },
    {
      "inputs": [
        {
          "internalType": "address",
          "name": "owner",
          "type": "address"
        },
        {
          "internalType": "address",
          "name": "operator",
          "type": "address"
        }
      ],
      "name": "isApprovedForAll",
      "outputs": [
        {
          "internalType": "bool",
          "name": "",
          "type": "bool"
        }
      ],
      "stateMutability": "view",
      "type": "function"
    },
    {
      "inputs": [],
      "name": "name",
      "outputs": [
        {
          "internalType": "string",
          "name": "",
          "type": "string"
        }
      ],
      "stateMutability": "view",
      "type": "function"
    },
    {
      "inputs": [],
      "name": "nextTokenId",
      "outputs": [
        {
          "internalType": "uint256",
          "name": "",
          "type": "uint256"
        }
      ],
      "stateMutability": "view",
      "type": "function"
    },
    {
      "inputs": [
        {
          "internalType": "uint256",
          "name": "tokenId",
          "type": "uint256"
        }
      ],
      "name": "ownerOf",
      "outputs": [
        {
          "internalType": "address",
          "name": "",
          "type": "address"
        }
      ],
      "stateMutability": "view",
      "type": "function"
    },
    {
      "inputs": [
        {
          "internalType": "address",
          "name": "_to",
          "type": "address"
        },
        {
          "internalType": "string",
          "name": "_uri",
          "type": "string"
        }
      ],
      "name": "safeMint",
      "outputs": [],
      "stateMutability": "nonpayable",
      "type": "function"
    },
    {
      "inputs": [
        {
          "internalType": "address",
          "name": "from",
          "type": "address"
        },
        {
          "internalType": "address",
          "name": "to",
          "type": "address"
        },
        {
          "internalType": "uint256",
          "name": "tokenId",
          "type": "uint256"
        }
      ],
      "name": "safeTransferFrom",
      "outputs": [],
      "stateMutability": "nonpayable",
      "type": "function"
    },
    {
      "inputs": [
        {
          "internalType": "address",
          "name": "from",
          "type": "address"
        },
        {
          "internalType": "address",
          "name": "to",
          "type": "address"
        },
        {
          "internalType": "uint256",
          "name": "tokenId",
          "type": "uint256"
        },
        {
          "internalType": "bytes",
          "name": "data",
          "type": "bytes"
        }
      ],
      "name": "safeTransferFrom",
      "outputs": [],
      "stateMutability": "nonpayable",
      "type": "function"
    },
    {
      "inputs": [
        {
          "internalType": "address",
          "name": "operator",
          "type": "address"
        },
        {
          "internalType": "bool",
          "name": "approved",
          "type": "bool"
        }
      ],
      "name": "setApprovalForAll",
      "outputs": [],
      "stateMutability": "nonpayable",
      "type": "function"
    },
    {
      "inputs": [
        {
          "internalType": "bytes4",
          "name": "interfaceId",
          "type": "bytes4"
        }
      ],
      "name": "supportsInterface",
      "outputs": [
        {
          "internalType": "bool",
          "name": "",
          "type": "bool"
        }
      ],
      "stateMutability": "view",
      "type": "function"
    },
    {
      "inputs": [],
      "name": "symbol",
      "outputs": [
        {
          "internalType": "string",
          "name": "",
          "type": "string"
        }
      ],
      "stateMutability": "view",
      "type": "function"
    },
    {
      "inputs": [
        {
          "internalType": "uint256",
          "name": "tokenId",
          "type": "uint256"
        }
      ],
      "name": "tokenURI",
      "outputs": [
        {
          "internalType": "string",
          "name": "",
          "type": "string"
        }
      ],
      "stateMutability": "view",
      "type": "function"
    },
    {
      "inputs": [
        {
          "internalType": "address",
          "name": "from",
          "type": "address"
        },
        {
          "internalType": "address",
          "name": "to",
          "type": "address"
        },
        {
          "internalType": "uint256",
          "name": "tokenId",
          "type": "uint256"
        }
      ],
      "name": "transferFrom",
      "outputs": [],
      "stateMutability": "nonpayable",
      "type": "function"
    }
  ],
  "bytecode": "0x60806040523480156200001157600080fd5b506040518060400160405280600781526020017f4d79546f6b656e000000000000000000000000000000000000000000000000008152506040518060400160405280600381526020017f4d544b000000000000000000000000000000000000000000000000000000000081525081600090816200008f91906200032c565b508060019081620000a191906200032c565b505050600160068190555062000413565b600081519050919050565b7f4e487b7100000000000000000000000000000000000000000000000000000000600052604160045260246000fd5b7f4e487b7100000000000000000000000000000000000000000000000000000000600052602260045260246000fd5b600060028204905060018216806200013457607f821691505b6020821081036200014a5762000149620000ec565b5b50919050565b60008190508160005260206000209050919050565b60006020601f8301049050919050565b600082821b905092915050565b600060088302620001b47fffffffffffffffffffffffffffffffffffffffffffffffffffffffffffffffff8262000175565b620001c0868362000175565b95508019841693508086168417925050509392505050565b6000819050919050565b6000819050919050565b60006200020d620002076200020184620001d8565b620001e2565b620001d8565b9050919050565b6000819050919050565b6200022983620001ec565b62000241620002388262000214565b84845462000182565b825550505050565b600090565b6200025862000249565b620002658184846200021e565b505050565b5b818110156200028d57620002816000826200024e565b6001810190506200026b565b5050565b601f821115620002dc57620002a68162000150565b620002b18462000165565b81016020851015620002c1578190505b620002d9620002d08562000165565b8301826200026a565b50505b505050565b600082821c905092915050565b60006200030160001984600802620002e1565b1980831691505092915050565b60006200031c8383620002ee565b9150826002028217905092915050565b6200033782620000b2565b67ffffffffffffffff811115620003535762000352620000bd565b5b6200035f82546200011b565b6200036c82828562000291565b600060209050601f831160018114620003a457600084156200038f578287015190505b6200039b85826200030e565b8655506200040b565b601f198416620003b48662000150565b60005b82811015620003de57848901518255600182019150602085019450602081019050620003b7565b86831015620003fe5784890151620003fa601f891682620002ee565b8355505b6001600288020188555050505b505050505050565b61273480620004236000396000f3fe608060405234801561001057600080fd5b50600436106101165760003560e01c806370a08231116100a2578063a22cb46511610071578063a22cb4651461030b578063b88d4fde14610327578063c87b56dd14610343578063d204c45e14610373578063e985e9c51461038f57610116565b806370a082311461028157806375794a3c146102b15780638389757a146102cf57806395d89b41146102ed57610116565b806323b872dd116100e957806323b872dd146101b55780632de7b43c146101d157806341f63bfd1461020357806342842e0e146102355780636352211e1461025157610116565b806301ffc9a71461011b57806306fdde031461014b578063081812fc14610169578063095ea7b314610199575b600080fd5b61013560048036038101906101309190611a7f565b6103bf565b6040516101429190611ac7565b60405180910390f35b6101536104a1565b6040516101609190611b72565b60405180910390f35b610183600480360381019061017e9190611bca565b610533565b6040516101909190611c38565b60405180910390f35b6101b360048036038101906101ae9190611c7f565b61054f565b005b6101cf60048036038101906101ca9190611cbf565b610565565b005b6101eb60048036038101906101e69190611bca565b610667565b6040516101fa93929190611d21565b60405180910390f35b61021d60048036038101906102189190611bca565b610749565b60405161022c93929190611d21565b60405180910390f35b61024f600480360381019061024a9190611cbf565b6108d5565b005b61026b60048036038101906102669190611bca565b6108f5565b6040516102789190611c38565b60405180910390f35b61029b60048036038101906102969190611d5f565b610907565b6040516102a89190611d8c565b60405180910390f35b6102b96109c1565b6040516102c69190611d8c565b60405180910390f35b6102d76109c7565b6040516102e49190611d8c565b60405180910390f35b6102f56109dd565b6040516103029190611b72565b60405180910390f35b61032560048036038101906103209190611dd3565b610a6f565b005b610341600480360381019061033c9190611f48565b610a85565b005b61035d60048036038101906103589190611bca565b610aa2565b60405161036a9190611b72565b60405180910390f35b61038d6004803603810190610388919061206c565b610b0b565b005b6103a960048036038101906103a491906120c8565b610c04565b6040516103b69190611ac7565b60405180910390f35b60007f80ac58cd000000000000000000000000000000000000000000000000000000007bffffffffffffffffffffffffffffffffffffffffffffffffffffffff1916827bffffffffffffffffffffffffffffffffffffffffffffffffffffffff1916148061048a57507f5b5e139f000000000000000000000000000000000000000000000000000000007bffffffffffffffffffffffffffffffffffffffffffffffffffffffff1916827bffffffffffffffffffffffffffffffffffffffffffffffffffffffff1916145b8061049a575061049982610c98565b5b9050919050565b6060600080546104b090612137565b80601f01602080910402602001604051908101604052809291908181526020018280546104dc90612137565b80156105295780601f106104fe57610100808354040283529160200191610529565b820191906000526020600020905b81548152906001019060200180831161050c57829003601f168201915b5050505050905090565b600061053e82610d02565b5061054882610d8a565b9050919050565b610561828261055c610dc7565b610dcf565b5050565b600073ffffffffffffffffffffffffffffffffffffffff168273ffffffffffffffffffffffffffffffffffffffff16036105d75760006040517f64a0ae920000000000000000000000000000000000000000000000000000000081526004016105ce9190611c38565b60405180910390fd5b60006105eb83836105e6610dc7565b610de1565b90508373ffffffffffffffffffffffffffffffffffffffff168173ffffffffffffffffffffffffffffffffffffffff1614610661578382826040517f64283d7b00000000000000000000000000000000000000000000000000000000815260040161065893929190612168565b60405180910390fd5b50505050565b6007818154811061067757600080fd5b90600052602060002090600302016000915090508060000160009054906101000a900473ffffffffffffffffffffffffffffffffffffffff16908060010154908060020180546106c690612137565b80601f01602080910402602001604051908101604052809291908181526020018280546106f290612137565b801561073f5780601f106107145761010080835404028352916020019161073f565b820191906000526020600020905b81548152906001019060200180831161072257829003601f168201915b5050505050905083565b60008060606007805490508410610795576040517f08c379a000000000000000000000000000000000000000000000000000000000815260040161078c906121eb565b60405180910390fd5b6000600785815481106107ab576107aa61220b565b5b90600052602060002090600302016040518060600160405290816000820160009054906101000a900473ffffffffffffffffffffffffffffffffffffffff1673ffffffffffffffffffffffffffffffffffffffff1673ffffffffffffffffffffffffffffffffffffffff1681526020016001820154815260200160028201805461083490612137565b80601f016020809104026020016040519081016040528092919081815260200182805461086090612137565b80156108ad5780601f10610882576101008083540402835291602001916108ad565b820191906000526020600020905b81548152906001019060200180831161089057829003601f168201915b5050505050815250509050806000015181602001518260400151935093509350509193909250565b6108f083838360405180602001604052806000815250610a85565b505050565b600061090082610d02565b9050919050565b60008073ffffffffffffffffffffffffffffffffffffffff168273ffffffffffffffffffffffffffffffffffffffff160361097a5760006040517f89c62b640000000000000000000000000000000000000000000000000000000081526004016109719190611c38565b60405180910390fd5b600360008373ffffffffffffffffffffffffffffffffffffffff1673ffffffffffffffffffffffffffffffffffffffff168152602001908152602001600020549050919050565b60065481565b600060016006546109d89190612269565b905090565b6060600180546109ec90612137565b80601f0160208091040260200160405190810160405280929190818152602001828054610a1890612137565b8015610a655780601f10610a3a57610100808354040283529160200191610a65565b820191906000526020600020905b815481529060010190602001808311610a4857829003601f168201915b5050505050905090565b610a81610a7a610dc7565b8383610ffb565b5050565b610a90848484610565565b610a9c8484848461116a565b50505050565b6060610aad82610d02565b506000610ab8611321565b90506000815111610ad85760405180602001604052806000815250610b03565b80610ae284611338565b604051602001610af39291906122d9565b6040516020818303038152906040525b915050919050565b60006006549050610b1c8382611406565b600060405180606001604052808573ffffffffffffffffffffffffffffffffffffffff168152602001838152602001848152509050600781908060018154018082558091505060019003906000526020600020906003020160009091909190915060008201518160000160006101000a81548173ffffffffffffffffffffffffffffffffffffffff021916908373ffffffffffffffffffffffffffffffffffffffff160217905550602082015181600101556040820151816002019081610be391906124a9565b50505060066000815480929190610bf99061257b565b919050555050505050565b6000600560008473ffffffffffffffffffffffffffffffffffffffff1673ffffffffffffffffffffffffffffffffffffffff16815260200190815260200160002060008373ffffffffffffffffffffffffffffffffffffffff1673ffffffffffffffffffffffffffffffffffffffff16815260200190815260200160002060009054906101000a900460ff16905092915050565b60007f01ffc9a7000000000000000000000000000000000000000000000000000000007bffffffffffffffffffffffffffffffffffffffffffffffffffffffff1916827bffffffffffffffffffffffffffffffffffffffffffffffffffffffff1916149050919050565b600080610d0e83611424565b9050600073ffffffffffffffffffffffffffffffffffffffff168173ffffffffffffffffffffffffffffffffffffffff1603610d8157826040517f7e273289000000000000000000000000000000000000000000000000000000008152600401610d789190611d8c565b60405180910390fd5b80915050919050565b60006004600083815260200190815260200160002060009054906101000a900473ffffffffffffffffffffffffffffffffffffffff169050919050565b600033905090565b610ddc8383836001611461565b505050565b600080610ded84611424565b9050600073ffffffffffffffffffffffffffffffffffffffff168373ffffffffffffffffffffffffffffffffffffffff1614610e2f57610e2e818486611626565b5b600073ffffffffffffffffffffffffffffffffffffffff168173ffffffffffffffffffffffffffffffffffffffff1614610ec057610e71600085600080611461565b6001600360008373ffffffffffffffffffffffffffffffffffffffff1673ffffffffffffffffffffffffffffffffffffffff168152602001908152602001600020600082825403925050819055505b600073ffffffffffffffffffffffffffffffffffffffff168573ffffffffffffffffffffffffffffffffffffffff1614610f43576001600360008773ffffffffffffffffffffffffffffffffffffffff1673ffffffffffffffffffffffffffffffffffffffff168152602001908152602001600020600082825401925050819055505b846002600086815260200190815260200160002060006101000a81548173ffffffffffffffffffffffffffffffffffffffff021916908373ffffffffffffffffffffffffffffffffffffffff160217905550838573ffffffffffffffffffffffffffffffffffffffff168273ffffffffffffffffffffffffffffffffffffffff167fddf252ad1be2c89b69c2b068fc378daa952ba7f163c4a11628f55a4df523b3ef60405160405180910390a4809150509392505050565b600073ffffffffffffffffffffffffffffffffffffffff168273ffffffffffffffffffffffffffffffffffffffff160361106c57816040517f5b08ba180000000000000000000000000000000000000000000000000000000081526004016110639190611c38565b60405180910390fd5b80600560008573ffffffffffffffffffffffffffffffffffffffff1673ffffffffffffffffffffffffffffffffffffffff16815260200190815260200160002060008473ffffffffffffffffffffffffffffffffffffffff1673ffffffffffffffffffffffffffffffffffffffff16815260200190815260200160002060006101000a81548160ff0219169083151502179055508173ffffffffffffffffffffffffffffffffffffffff168373ffffffffffffffffffffffffffffffffffffffff167f17307eab39ab6107e8899845ad3d59bd9653f200f220920489ca2b5937696c318360405161115d9190611ac7565b60405180910390a3505050565b60008373ffffffffffffffffffffffffffffffffffffffff163b111561131b578273ffffffffffffffffffffffffffffffffffffffff1663150b7a026111ae610dc7565b8685856040518563ffffffff1660e01b81526004016111d09493929190612618565b6020604051808303816000875af192505050801561120c57506040513d601f19601f820116820180604052508101906112099190612679565b60015b611290573d806000811461123c576040519150601f19603f3d011682016040523d82523d6000602084013e611241565b606091505b50600081510361128857836040517f64a0ae9200000000000000000000000000000000000000000000000000000000815260040161127f9190611c38565b60405180910390fd5b805181602001fd5b63150b7a0260e01b7bffffffffffffffffffffffffffffffffffffffffffffffffffffffff1916817bffffffffffffffffffffffffffffffffffffffffffffffffffffffff19161461131957836040517f64a0ae920000000000000000000000000000000000000000000000000000000081526004016113109190611c38565b60405180910390fd5b505b50505050565b606060405180602001604052806000815250905090565b606060006001611347846116ea565b01905060008167ffffffffffffffff81111561136657611365611e1d565b5b6040519080825280601f01601f1916602001820160405280156113985781602001600182028036833780820191505090505b509050600082602001820190505b6001156113fb578080600190039150507f3031323334353637383961626364656600000000000000000000000000000000600a86061a8153600a85816113ef576113ee6126a6565b5b049450600085036113a6575b819350505050919050565b61142082826040518060200160405280600081525061183d565b5050565b60006002600083815260200190815260200160002060009054906101000a900473ffffffffffffffffffffffffffffffffffffffff169050919050565b808061149a5750600073ffffffffffffffffffffffffffffffffffffffff168273ffffffffffffffffffffffffffffffffffffffff1614155b156115ce5760006114aa84610d02565b9050600073ffffffffffffffffffffffffffffffffffffffff168373ffffffffffffffffffffffffffffffffffffffff161415801561151557508273ffffffffffffffffffffffffffffffffffffffff168173ffffffffffffffffffffffffffffffffffffffff1614155b801561152857506115268184610c04565b155b1561156a57826040517fa9fbf51f0000000000000000000000000000000000000000000000000000000081526004016115619190611c38565b60405180910390fd5b81156115cc57838573ffffffffffffffffffffffffffffffffffffffff168273ffffffffffffffffffffffffffffffffffffffff167f8c5be1e5ebec7d5bd14f71427d1e84f3dd0314c0f7b2291e5b200ac8c7c3b92560405160405180910390a45b505b836004600085815260200190815260200160002060006101000a81548173ffffffffffffffffffffffffffffffffffffffff021916908373ffffffffffffffffffffffffffffffffffffffff16021790555050505050565b611631838383611859565b6116e557600073ffffffffffffffffffffffffffffffffffffffff168373ffffffffffffffffffffffffffffffffffffffff16036116a657806040517f7e27328900000000000000000000000000000000000000000000000000000000815260040161169d9190611d8c565b60405180910390fd5b81816040517f177e802f0000000000000000000000000000000000000000000000000000000081526004016116dc9291906126d5565b60405180910390fd5b505050565b600080600090507a184f03e93ff9f4daa797ed6e38ed64bf6a1f0100000000000000008310611748577a184f03e93ff9f4daa797ed6e38ed64bf6a1f010000000000000000838161173e5761173d6126a6565b5b0492506040810190505b6d04ee2d6d415b85acef81000000008310611785576d04ee2d6d415b85acef8100000000838161177b5761177a6126a6565b5b0492506020810190505b662386f26fc1000083106117b457662386f26fc1000083816117aa576117a96126a6565b5b0492506010810190505b6305f5e10083106117dd576305f5e10083816117d3576117d26126a6565b5b0492506008810190505b61271083106118025761271083816117f8576117f76126a6565b5b0492506004810190505b60648310611825576064838161181b5761181a6126a6565b5b0492506002810190505b600a8310611834576001810190505b80915050919050565b611847838361191a565b611854600084848461116a565b505050565b60008073ffffffffffffffffffffffffffffffffffffffff168373ffffffffffffffffffffffffffffffffffffffff161415801561191157508273ffffffffffffffffffffffffffffffffffffffff168473ffffffffffffffffffffffffffffffffffffffff1614806118d257506118d18484610c04565b5b8061191057508273ffffffffffffffffffffffffffffffffffffffff166118f883610d8a565b73ffffffffffffffffffffffffffffffffffffffff16145b5b90509392505050565b600073ffffffffffffffffffffffffffffffffffffffff168273ffffffffffffffffffffffffffffffffffffffff160361198c5760006040517f64a0ae920000000000000000000000000000000000000000000000000000000081526004016119839190611c38565b60405180910390fd5b600061199a83836000610de1565b9050600073ffffffffffffffffffffffffffffffffffffffff168173ffffffffffffffffffffffffffffffffffffffff1614611a0e5760006040517f73c6ac6e000000000000000000000000000000000000000000000000000000008152600401611a059190611c38565b60405180910390fd5b505050565b6000604051905090565b600080fd5b600080fd5b60007fffffffff0000000000000000000000000000000000000000000000000000000082169050919050565b611a5c81611a27565b8114611a6757600080fd5b50565b600081359050611a7981611a53565b92915050565b600060208284031215611a9557611a94611a1d565b5b6000611aa384828501611a6a565b91505092915050565b60008115159050919050565b611ac181611aac565b82525050565b6000602082019050611adc6000830184611ab8565b92915050565b600081519050919050565b600082825260208201905092915050565b60005b83811015611b1c578082015181840152602081019050611b01565b60008484015250505050565b6000601f19601f8301169050919050565b6000611b4482611ae2565b611b4e8185611aed565b9350611b5e818560208601611afe565b611b6781611b28565b840191505092915050565b60006020820190508181036000830152611b8c8184611b39565b905092915050565b6000819050919050565b611ba781611b94565b8114611bb257600080fd5b50565b600081359050611bc481611b9e565b92915050565b600060208284031215611be057611bdf611a1d565b5b6000611bee84828501611bb5565b91505092915050565b600073ffffffffffffffffffffffffffffffffffffffff82169050919050565b6000611c2282611bf7565b9050919050565b611c3281611c17565b82525050565b6000602082019050611c4d6000830184611c29565b92915050565b611c5c81611c17565b8114611c6757600080fd5b50565b600081359050611c7981611c53565b92915050565b60008060408385031215611c9657611c95611a1d565b5b6000611ca485828601611c6a565b9250506020611cb585828601611bb5565b9150509250929050565b600080600060608486031215611cd857611cd7611a1d565b5b6000611ce686828701611c6a565b9350506020611cf786828701611c6a565b9250506040611d0886828701611bb5565b9150509250925092565b611d1b81611b94565b82525050565b6000606082019050611d366000830186611c29565b611d436020830185611d12565b8181036040830152611d558184611b39565b9050949350505050565b600060208284031215611d7557611d74611a1d565b5b6000611d8384828501611c6a565b91505092915050565b6000602082019050611da16000830184611d12565b92915050565b611db081611aac565b8114611dbb57600080fd5b50565b600081359050611dcd81611da7565b92915050565b60008060408385031215611dea57611de9611a1d565b5b6000611df885828601611c6a565b9250506020611e0985828601611dbe565b9150509250929050565b600080fd5b600080fd5b7f4e487b7100000000000000000000000000000000000000000000000000000000600052604160045260246000fd5b611e5582611b28565b810181811067ffffffffffffffff82111715611e7457611e73611e1d565b5b80604052505050565b6000611e87611a13565b9050611e938282611e4c565b919050565b600067ffffffffffffffff821115611eb357611eb2611e1d565b5b611ebc82611b28565b9050602081019050919050565b82818337600083830152505050565b6000611eeb611ee684611e98565b611e7d565b905082815260208101848484011115611f0757611f06611e18565b5b611f12848285611ec9565b509392505050565b600082601f830112611f2f57611f2e611e13565b5b8135611f3f848260208601611ed8565b91505092915050565b60008060008060808587031215611f6257611f61611a1d565b5b6000611f7087828801611c6a565b9450506020611f8187828801611c6a565b9350506040611f9287828801611bb5565b925050606085013567ffffffffffffffff811115611fb357611fb2611a22565b5b611fbf87828801611f1a565b91505092959194509250565b600067ffffffffffffffff821115611fe657611fe5611e1d565b5b611fef82611b28565b9050602081019050919050565b600061200f61200a84611fcb565b611e7d565b90508281526020810184848401111561202b5761202a611e18565b5b612036848285611ec9565b509392505050565b600082601f83011261205357612052611e13565b5b8135612063848260208601611ffc565b91505092915050565b6000806040838503121561208357612082611a1d565b5b600061209185828601611c6a565b925050602083013567ffffffffffffffff8111156120b2576120b1611a22565b5b6120be8582860161203e565b9150509250929050565b600080604083850312156120df576120de611a1d565b5b60006120ed85828601611c6a565b92505060206120fe85828601611c6a565b9150509250929050565b7f4e487b7100000000000000000000000000000000000000000000000000000000600052602260045260246000fd5b6000600282049050600182168061214f57607f821691505b60208210810361216257612161612108565b5b50919050565b600060608201905061217d6000830186611c29565b61218a6020830185611d12565b6121976040830184611c29565b949350505050565b7f4e465420646f6573206e6f742065786973742100000000000000000000000000600082015250565b60006121d5601383611aed565b91506121e08261219f565b602082019050919050565b60006020820190508181036000830152612204816121c8565b9050919050565b7f4e487b7100000000000000000000000000000000000000000000000000000000600052603260045260246000fd5b7f4e487b7100000000000000000000000000000000000000000000000000000000600052601160045260246000fd5b600061227482611b94565b915061227f83611b94565b92508282039050818111156122975761229661223a565b5b92915050565b600081905092915050565b60006122b382611ae2565b6122bd818561229d565b93506122cd818560208601611afe565b80840191505092915050565b60006122e582856122a8565b91506122f182846122a8565b91508190509392505050565b60008190508160005260206000209050919050565b60006020601f8301049050919050565b600082821b905092915050565b60006008830261235f7fffffffffffffffffffffffffffffffffffffffffffffffffffffffffffffffff82612322565b6123698683612322565b95508019841693508086168417925050509392505050565b6000819050919050565b60006123a66123a161239c84611b94565b612381565b611b94565b9050919050565b6000819050919050565b6123c08361238b565b6123d46123cc826123ad565b84845461232f565b825550505050565b600090565b6123e96123dc565b6123f48184846123b7565b505050565b5b818110156124185761240d6000826123e1565b6001810190506123fa565b5050565b601f82111561245d5761242e816122fd565b61243784612312565b81016020851015612446578190505b61245a61245285612312565b8301826123f9565b50505b505050565b600082821c905092915050565b600061248060001984600802612462565b1980831691505092915050565b6000612499838361246f565b9150826002028217905092915050565b6124b282611ae2565b67ffffffffffffffff8111156124cb576124ca611e1d565b5b6124d58254612137565b6124e082828561241c565b600060209050601f8311600181146125135760008415612501578287015190505b61250b858261248d565b865550612573565b601f198416612521866122fd565b60005b8281101561254957848901518255600182019150602085019450602081019050612524565b868310156125665784890151612562601f89168261246f565b8355505b6001600288020188555050505b505050505050565b600061258682611b94565b91507fffffffffffffffffffffffffffffffffffffffffffffffffffffffffffffffff82036125b8576125b761223a565b5b600182019050919050565b600081519050919050565b600082825260208201905092915050565b60006125ea826125c3565b6125f481856125ce565b9350612604818560208601611afe565b61260d81611b28565b840191505092915050565b600060808201905061262d6000830187611c29565b61263a6020830186611c29565b6126476040830185611d12565b818103606083015261265981846125df565b905095945050505050565b60008151905061267381611a53565b92915050565b60006020828403121561268f5761268e611a1d565b5b600061269d84828501612664565b91505092915050565b7f4e487b7100000000000000000000000000000000000000000000000000000000600052601260045260246000fd5b60006040820190506126ea6000830185611c29565b6126f76020830184611d12565b939250505056fea2646970667358221220ac45e0c7c5179f60791998a32b30a8d48d3f7b5245f047160f748cc0b41486ed64736f6c63430008180033",
  "linkReferences": {},
  "deployedLinkReferences": {}
}